{
  "contractName": "Certificate",
  "abi": [
    {
      "constant": true,
      "inputs": [
        {
          "name": "",
          "type": "address"
        }
      ],
      "name": "users_mapping",
      "outputs": [
        {
          "name": "certificate_count",
          "type": "uint256"
        }
      ],
      "payable": false,
      "stateMutability": "view",
      "type": "function"
    },
    {
      "constant": false,
      "inputs": [
        {
          "name": "_certificate_data",
          "type": "string"
        },
        {
          "name": "addrs",
          "type": "address"
        }
      ],
      "name": "insert_certificate",
      "outputs": [],
      "payable": false,
      "stateMutability": "nonpayable",
      "type": "function"
    },
    {
      "constant": true,
      "inputs": [
        {
          "name": "addrs",
          "type": "address"
        }
      ],
      "name": "get_certificate_self",
      "outputs": [
        {
          "name": "",
          "type": "string"
        }
      ],
      "payable": false,
      "stateMutability": "view",
      "type": "function"
    },
    {
      "constant": true,
      "inputs": [
        {
          "name": "addrs",
          "type": "address"
        }
      ],
      "name": "get_count",
      "outputs": [
        {
          "name": "",
          "type": "uint256"
        }
      ],
      "payable": false,
      "stateMutability": "view",
      "type": "function"
    },
    {
      "constant": true,
      "inputs": [
        {
          "name": "addrs",
          "type": "address"
        },
        {
          "name": "index",
          "type": "uint256"
        }
      ],
      "name": "index_certificate",
      "outputs": [
        {
          "name": "",
          "type": "string"
        }
      ],
      "payable": false,
      "stateMutability": "view",
      "type": "function"
    }
  ],
  "bytecode": "0x608060405234801561001057600080fd5b5061095b806100206000396000f30060806040526004361061006d576000357c0100000000000000000000000000000000000000000000000000000000900463ffffffff16806336868204146100725780633f09d0781461012e578063608452f2146101855780638702ab0e146101dc578063af384c78146102a2575b600080fd5b34801561007e57600080fd5b506100b3600480360381019080803573ffffffffffffffffffffffffffffffffffffffff16906020019092919050505061032b565b6040518080602001828103825283818151815260200191508051906020019080838360005b838110156100f35780820151818401526020810190506100d8565b50505050905090810190601f1680156101205780820380516001836020036101000a031916815260200191505b509250505060405180910390f35b34801561013a57600080fd5b5061016f600480360381019080803573ffffffffffffffffffffffffffffffffffffffff169060200190929190505050610589565b6040518082815260200191505060405180910390f35b34801561019157600080fd5b506101c6600480360381019080803573ffffffffffffffffffffffffffffffffffffffff1690602001909291905050506105e6565b6040518082815260200191505060405180910390f35b3480156101e857600080fd5b50610227600480360381019080803573ffffffffffffffffffffffffffffffffffffffff16906020019092919080359060200190929190505050610604565b6040518080602001828103825283818151815260200191508051906020019080838360005b8381101561026757808201518184015260208101905061024c565b50505050905090810190601f1680156102945780820380516001836020036101000a031916815260200191505b509250505060405180910390f35b3480156102ae57600080fd5b50610329600480360381019080803590602001908201803590602001908080601f0160208091040260200160405190810160405280939291908181526020018383808284378201915050505050509192919290803573ffffffffffffffffffffffffffffffffffffffff1690602001909291905050506106fc565b005b606060008060008060008060003373ffffffffffffffffffffffffffffffffffffffff1673ffffffffffffffffffffffffffffffffffffffff168152602001908152602001600020600a0154945060009250600091505b8482111515610498576000803373ffffffffffffffffffffffffffffffffffffffff1673ffffffffffffffffffffffffffffffffffffffff168152602001908152602001600020600b0182600a811015156103d957fe5b0160009054906101000a900473ffffffffffffffffffffffffffffffffffffffff1690508673ffffffffffffffffffffffffffffffffffffffff168173ffffffffffffffffffffffffffffffffffffffff16141561048b576000803373ffffffffffffffffffffffffffffffffffffffff1673ffffffffffffffffffffffffffffffffffffffff16815260200190815260200160002060000182600a8110151561047f57fe5b01935060019250610498565b8180600101925050610382565b6000151583151514156104e2576040805190810160405280601481526020017f4e6f20636572746966696361746520666f756e64000000000000000000000000815250955061057f565b838054600181600116156101000203166002900480601f0160208091040260200160405190810160405280929190818152602001828054600181600116156101000203166002900480156105775780601f1061054c57610100808354040283529160200191610577565b820191906000526020600020905b81548152906001019060200180831161055a57829003601f168201915b505050505095505b5050505050919050565b60008060008060008573ffffffffffffffffffffffffffffffffffffffff1673ffffffffffffffffffffffffffffffffffffffff168152602001908152602001600020600a01549150816001900391508190508092505050919050565b600060205280600052604060002060009150905080600a0154905081565b606060008060008573ffffffffffffffffffffffffffffffffffffffff1673ffffffffffffffffffffffffffffffffffffffff16815260200190815260200160002060000183600a8110151561065657fe5b019050808054600181600116156101000203166002900480601f0160208091040260200160405190810160405280929190818152602001828054600181600116156101000203166002900480156106ee5780601f106106c3576101008083540402835291602001916106ee565b820191906000526020600020905b8154815290600101906020018083116106d157829003601f168201915b505050505091505092915050565b60008060008373ffffffffffffffffffffffffffffffffffffffff1673ffffffffffffffffffffffffffffffffffffffff168152602001908152602001600020600a01549050826000808473ffffffffffffffffffffffffffffffffffffffff1673ffffffffffffffffffffffffffffffffffffffff16815260200190815260200160002060000182600a8110151561079157fe5b0190805190602001906107a592919061088a565b50336000808473ffffffffffffffffffffffffffffffffffffffff1673ffffffffffffffffffffffffffffffffffffffff168152602001908152602001600020600b0182600a811015156107f557fe5b0160006101000a81548173ffffffffffffffffffffffffffffffffffffffff021916908373ffffffffffffffffffffffffffffffffffffffff1602179055506000808373ffffffffffffffffffffffffffffffffffffffff1673ffffffffffffffffffffffffffffffffffffffff168152602001908152602001600020600a0160008154809291906001019190505550505050565b828054600181600116156101000203166002900490600052602060002090601f016020900481019282601f106108cb57805160ff19168380011785556108f9565b828001600101855582156108f9579182015b828111156108f85782518255916020019190600101906108dd565b5b509050610906919061090a565b5090565b61092c91905b80821115610928576000816000905550600101610910565b5090565b905600a165627a7a72305820f95d2473a4e98e0963e3ef5c32ebac569bcdbab5baea8c203844df8b4a26b3040029",
  "source": "pragma solidity ^0.4.21;\n\ncontract Certificate {\n\n    struct user_data {\n        string[10] certificates;\n        uint certificate_count;\n        address[10] sender;\n    }\n    \n    \n    mapping (address => user_data) public users_mapping;\n    \n    \n    function  insert_certificate (string _certificate_data, address addrs) public {\n       uint count = users_mapping[addrs].certificate_count;\n       users_mapping[addrs].certificates[count] = _certificate_data;\n       users_mapping[addrs].sender[count] = msg.sender;\n        users_mapping[addrs].certificate_count ++;\n    }\n    \n    function get_certificate_self(address addrs) constant public returns(string) {\n        uint count=users_mapping[msg.sender].certificate_count;\n        string  data;\n        bool val = false;\n        for (uint i=0; i<=count;i++) {\n            address _address= users_mapping[msg.sender].sender[i];\n            if (_address== addrs){\n                data=users_mapping[msg.sender].certificates[i];\n                val=true;\n                break;\n            }\n            \n        }\n        if(val== false){return \"No certificate found\";}\n        return data;\n    }\n    \n    function get_count(address addrs) constant public returns (uint) {\n       uint count=users_mapping[addrs].certificate_count;\n       uint index = --count;\n       return index;\n    }\n    \n    function index_certificate(address addrs, uint index) constant returns(string){\n        string data = users_mapping[addrs].certificates[index];\n        return data;\n    }\n    \n}",
  "sourcePath": "F:\\Manank\\block-certify\\blockchain\\contracts\\Certificate.sol",
  "compiler": {
    "name": "solc",
    "version": "0.4.24+commit.e67f0147.Emscripten.clang"
  },
  "schemaVersion": "2.0.1",
  "updatedAt": "2018-11-04T06:32:54.323Z"
}